:1000000014C02CC02BC02AC029C028C018C126C0CB
:1000100025C024C023C022C021C020C01FC01EC0D4
:100020001DC01CC01BC01AC019C011241FBECFEDBB
:10003000CDBF10E0A0E6B0E0EEE8F3E002C005902E
:100040000D92A638B107D9F710E0A6E8B0E001C0DC
:100050001D92A838B107E1F76FD197C1D1CFC59AEA
:10006000C79ABF9ABD9A8FEF8FB98AE28DB980EF98
:100070008EB908958091870008958EB98BE29DE036
:100080009A95F1F700008DB9B79BFECF9AE09A954B
:10009000F1F700C08DB9769BF2CF8DE08A95F1F72C
:1000A00000008FB19FEF9FB9BD9A0895C79AC79B73
:1000B000FECF8DE08A95F1F70000C5988AE08A9519
:1000C000F1F700C0C798C59A779905C083E080937F
:1000D000870080E0089581E00895C598C79AB79B8E
:1000E000FECF8AE08A95F1F700C0C59A8DE08A9527
:1000F000F1F700009EB1892F807295FD04C094E055
:1001000090938700089581E00895AF92BF92CF92B7
:10011000DF92EF92FF920F931F93CF93DF937C01B7
:10012000062F90918700916090938700F70180815E
:1001300080FD03C0926090938700B8DF982F8823DA
:1001400009F452C0102FE701BB24BA94AA24A39447
:100150008091870083709E012F5F3F4F6901882344
:1001600061F1C79888818FB980EF87DFBD988EEFE6
:1001700084DF2091870080FF0AC0922F917020FFBA
:1001800004C081E0809387002EC082E00FC0822FE0
:100190008570843071F4F701808181608083A09242
:1001A000870084DF982F811115C08AE08093870033
:1001B0001BC02E7F209387000BC0BD9880EF5DDFB2
:1001C0008883113011F4BFB801C01FB88EEF55DF1E
:1001D000E60102C0102FE701115009F0B9CF7DDF11
:1001E00091E0811101C090E0892FDF91CF911F91A3
:1001F0000F91FF90EF90DF90CF90BF90AF90089558
:10020000FC0120812E7F208324E0209387007DCF76
:10021000109287007ACFB89AB99ABA9ABB9ABC9AC8
:100220008D9A889A899A83B7826083BF89B78260E2
:1002300089BF7894089589B78D7F89BF08951F92EB
:100240000F920FB60F9211242F933F934F935F930A
:100250006F937F938F939F93AF93BF93EF93FF938E
:100260009598E091860048B3F0E0E05AFF4F21E016
:1002700030E0C901008002C0880F991F0A94E2F79C
:1002800080959095842388BB8091860090E00196AC
:1002900065E070E053D080938600E091860048B31B
:1002A000F0E0E05AFF4FC901008002C0880F991F9B
:1002B0000A94E2F7842B88BB4091860084E090E0AA
:1002C000841B910902C0220F331F8A95E2F76AE668
:1002D00070E0E4E040E050E0DB01A40FB51F5B9666
:1002E0008C9190E082239323892B39F082B3836031
:1002F00082BB82B38C7F82BB02C0909A909841509F
:100300005109493F8FEF580739F7E150675071099C
:10031000E111E0CF959AFF91EF91BF91AF919F913D
:100320008F917F916F915F914F913F912F910F909E
:100330000FBE0F901F9018956EDFFFCF97FB072E13
:1003400016F4009406D077FD08D00BD007FC05D03A
:100350003EF4909581959F4F0895709561957F4FDC
:100360000895AA1BBB1B51E107C0AA1FBB1FA617FC
:10037000B70710F0A61BB70B881F991F5A95A9F74E
:0E03800080959095BC01CD010895F894FFCFB3
:10038E0000010203047F484840401F10101C10104B
:10039E00101111111111110E0E11101010110E114C
:0603AE00121418141211D4
:00000001FF
