:1000000014C02CC02BC02AC029C028C018C126C0CB
:1000100025C024C023C022C021C020C01FC01EC0D4
:100020001DC01CC01BC01AC019C011241FBECFEDBB
:10003000CDBF10E0A0E6B0E0E4E7F3E002C0059039
:100040000D92A237B107D9F710E0A2E7B0E001C0E6
:100050001D92A437B107E1F762D18AC1D1CFC59A09
:10006000C79ABF9ABD9A8FEF8FB98AE28DB980EF98
:100070008EB908958091730008958EB98BE29DE04A
:100080009A95F1F700008DB9B79BFECF9AE09A954B
:10009000F1F700C08DB9769BF2CF8DE08A95F1F72C
:1000A00000008FB19FEF9FB9BD9A0895C79AC79B73
:1000B000FECF8DE08A95F1F70000C5988AE08A9519
:1000C000F1F700C0C798C59A779905C083E080937F
:1000D000730080E0089581E00895C598C79AB79BA2
:1000E000FECF8AE08A95F1F700C0C59A8DE08A9527
:1000F000F1F700009EB1892F807295FD04C094E055
:1001000090937300089581E00895AF92BF92CF92CB
:10011000DF92EF92FF920F931F93CF93DF937C01B7
:10012000062F90917300916090937300F701808186
:1001300080FD03C0926090937300B8DF982F8823EE
:1001400009F452C0102FE701BB24BA94AA24A39447
:100150008091730083709E012F5F3F4F6901882358
:1001600061F1C79888818FB980EF87DFBD988EEFE6
:1001700084DF2091730080FF0AC0922F917020FFCE
:1001800004C081E0809373002EC082E00FC0822FF4
:100190008570843071F4F701808181608083A09242
:1001A000730084DF982F811115C08AE0809373005B
:1001B0001BC02E7F209373000BC0BD9880EF5DDFC6
:1001C0008883113011F4BFB801C01FB88EEF55DF1E
:1001D000E60102C0102FE701115009F0B9CF7DDF11
:1001E00091E0811101C090E0892FDF91CF911F91A3
:1001F0000F91FF90EF90DF90CF90BF90AF90089558
:10020000FC0120812E7F208324E0209373007DCF8A
:10021000109273007ACFB89AB99ABA9ABB9ABC9ADC
:100220008D9A889A899A83B7826083BF89B78260E2
:1002300089BF7894089589B78D7F89BF08951F92EB
:100240000F920FB60F9211242F933F934F935F930A
:100250006F937F938F939F93AF93BF93EF93FF938E
:100260009598E091720048B3F0E0E05AFF4F21E02A
:1002700030E0C901008002C0880F991F0A94E2F79C
:1002800080959095842388BB8091720090E00196C0
:1002900065E070E046D080937200E091720088B310
:1002A000F0E0E05AFF4F008002C0220F331F0A9493
:1002B000E2F7282B28BBE091720024E0F0E0EB5934
:1002C000FF4F408150E080E090E0BA01082E02C06C
:1002D000759567950A94E2F760FF07C032B3336003
:1002E00032BB32B33C7F32BB02C0909A90980196E9
:1002F0008730910551F7215031F7959AFF91EF9191
:10030000BF91AF919F918F917F916F915F914F912D
:100310003F912F910F900FBE0F901F9018957BDF8C
:10032000FFCF97FB072E16F4009406D077FD08D078
:100330000BD007FC05D03EF4909581959F4F089512
:10034000709561957F4F0895AA1BBB1B51E107C0B3
:10035000AA1FBB1FA617B70710F0A61BB70B881F55
:10036000991F5A95A9F780959095BC01CD010895E4
:04037000F894FFCF2F
:1003740000010203047F484840401F10101C101065
:02038400100067
:00000001FF
